:020000040000fa
:080000000002040000000000f2
:020000040000fa
:04000800fa020000f8
:020000040000fa
:04000c0012030000db
:020000040000fa
:0400100022030000c7
:020000040000fa
:0400140002030000e3
:020000040000fa
:040018001a030000c7
:020000040000fa
:04001c003e10000092
:020000040000fa
:040020002a030000af
:020000040000fa
:040024003e1000008a
:020000040000fa
:040028003e10000086
:020000040000fa
:04002c003e10000082
:020000040000fa
:040030003e1000007e
:020000040000fa
:040034003e1000007a
:020000040000fa
:040038003e10000076
:020000040000fa
:04003c003e10000072
:020000040000fa
:040040003e1000006e
:020000040000fa
:040044008a08000026
:020000040000fa
:040048003e10000066
:020000040000fa
:04004c003e10000062
:020000040000fa
:040050003e1000005e
:020000040000fa
:040054003e1000005a
:020000040000fa
:040058003e10000056
:020000040000fa
:04005c003e10000052
:020000040000fa
:040060003e1000004e
:020000040000fa
:040064003203000063
:020000040000fa
:040068003e10000046
:020000040000fa
:04006c003e10000042
:020000040000fa
:040070003e1000003e
:020000040000fa
:040074003e1000003a
:020000040000fa
:040078003e10000036
:020000040000fa
:04007c003e10000032
:020000040000fa
:040080003e1000002e
:020000040000fa
:040084003e1000002a
:020000040000fa
:040088003e10000026
:020000040000fa
:04008c003e10000022
:020000040000fa
:040090003e1000001e
:020000040000fa
:040094003e1000001a
:020000040000fa
:040098003e10000016
:020000040000fa
:04009c003e10000012
:020000040000fa
:0400a0003e1000000e
:020000040000fa
:0400a4003e1000000a
:020000040000fa
:0400a8003e10000006
:020000040000fa
:0400ac003e10000002
:020000040000fa
:0400b0003e100000fe
:020000040000fa
:0400b4003e100000fa
:020000040000fa
:0400b8003e100000f6
:020000040000fa
:0400bc003e100000f2
:020000040000fa
:0400c0003e100000ee
:020000040000fa
:0400c4003e100000ea
:020000040000fa
:0400c8003e100000e6
:020000040000fa
:0400cc003e100000e2
:020000040000fa
:0400d0003e100000de
:020000040000fa
:0400d4003e100000da
:020000040000fa
:0400d8003e100000d6
:020000040000fa
:0400dc003e100000d2
:020000040000fa
:0400e0003e100000ce
:020000040000fa
:0400e4003e100000ca
:020000040000fa
:0400e8003e100000c6
:020000040000fa
:0400ec003e100000c2
:020000040000fa
:0400f0003e100000be
:020000040000fa
:0400f4003e100000ba
:020000040000fa
:0400f8003e100000b6
:020000040000fa
:0400fc003e100000b2
:020000040000fa
:040100003e100000ad
:020000040000fa
:040104003e100000a9
:020000040000fa
:040108003e100000a5
:020000040000fa
:04010c003e100000a1
:020000040000fa
:040110003e1000009d
:020000040000fa
:040114003e10000099
:020000040000fa
:040118003e10000095
:020000040000fa
:04011c003e10000091
:020000040000fa
:040120003e1000008d
:020000040000fa
:040124003e10000089
:020000040000fa
:040128003e10000085
:020000040000fa
:04012c003e10000081
:020000040000fa
:040130003e1000007d
:020000040000fa
:040134003e10000079
:020000040000fa
:040138003e10000075
:020000040000fa
:04013c003e10000071
:020000040000fa
:040140003e1000006d
:020000040000fa
:040144003e10000069
:020000040000fa
:040148003e10000065
:020000040000fa
:04014c003e10000061
:020000040000fa
:040150003e1000005d
:020000040000fa
:040154003e10000059
:020000040000fa
:040158003e10000055
:020000040000fa
:04015c003e10000051
:020000040000fa
:040160003e1000004d
:020000040000fa
:04016400aa070000e6
:020000040000fa
:040168003e10000045
:020000040000fa
:04016c003e10000041
:020000040000fa
:040170003e1000003d
:020000040000fa
:040174003e10000039
:020000040000fa
:040178003e10000035
:020000040000fa
:04017c003e10000031
:020000040000fa
:040180003e1000002d
:020000040000fa
:040184003e10000029
:020000040000fa
:040188003e10000025
:020000040000fa
:04018c003e10000021
:020000040000fa
:040190003e1000001d
:020000040000fa
:040194003e10000019
:020000040000fa
:040198003e10000015
:020000040000fa
:04019c003e10000011
:020000040000fa
:0401a0003e1000000d
:020000040000fa
:0401a4003e10000009
:020000040000fa
:0401a8003e10000005
:020000040000fa
:0401ac00ee0700005a
:020000040000fa
:0401b0003e100000fd
:020000040000fa
:0401b4003e100000f9
:020000040000fa
:0401b8003e100000f5
:020000040000fa
:0401bc003e100000f1
:020000040000fa
:0401c0003e100000ed
:020000040000fa
:0401c4003e100000e9
:020000040000fa
:0401c8003e100000e5
:020000040000fa
:0401cc003e100000e1
:020000040000fa
:0401d0003e100000dd
:020000040000fa
:0401d4003e100000d9
:020000040000fa
:0401d8003e100000d5
:020000040000fa
:0401dc003e100000d1
:020000040000fa
:0401e0003e100000cd
:020000040000fa
:0401e4003e100000c9
:020000040000fa
:0401e8003e100000c5
:020000040000fa
:0401ec003e100000c1
:020000040000fa
:0401f0003e100000bd
:020000040000fa
:0401f4003e100000b9
:020000040000fa
:0401f8003e100000b5
:020000040000fa
:0401fc003e100000b1
:020000040000fa
:040200003e100000ac
:020000040000fa
:040204003e100000a8
:020000040000fa
:040208003e100000a4
:020000040000fa
:04020c003e100000a0
:020000040000fa
:040210003e1000009c
:020000040000fa
:040214003e10000098
:020000040000fa
:040218003e10000094
:020000040000fa
:04021c003e10000090
:020000040000fa
:040220003e1000008c
:020000040000fa
:040224003e10000088
:020000040000fa
:040228003e10000084
:020000040000fa
:04022c003e10000080
:020000040000fa
:040230003e1000007c
:020000040000fa
:040234003e10000078
:020000040000fa
:040238003e10000074
:020000040000fa
:04023c003e10000070
:020000040000fa
:040240003e1000006c
:020000040000fa
:040244003e10000068
:020000040000fa
:040248003e10000064
:020000040000fa
:04024c003e10000060
:020000040000fa
:040250003e1000005c
:020000040000fa
:040254003e10000058
:020000040000fa
:040258003e10000054
:020000040000fa
:04025c003e10000050
:020000040000fa
:040260003e1000004c
:020000040000fa
:040264003e10000048
:020000040000fa
:040268003e10000044
:020000040000fa
:04026c003e10000040
:020000040000fa
:040270003e1000003c
:020000040000fa
:040274003e10000038
:020000040000fa
:040278003e10000034
:020000040000fa
:04027c003e10000030
:020000040000fa
:040280003e1000002c
:020000040000fa
:040284003e10000028
:020000040000fa
:040288003e10000024
:020000040000fa
:04028c003e10000020
:020000040000fa
:040290003e1000001c
:020000040000fa
:040294003e10000018
:020000040000fa
:040298003e10000014
:020000040000fa
:04029c003e10000010
:020000040000fa
:0402a0003e1000000c
:020000040000fa
:0402a4003e10000008
:020000040000fa
:0402a8003e10000004
:020000040000fa
:0402ac003e10000000
:020000040000fa
:0402b0003e100000fc
:020000040000fa
:0402b4003e100000f8
:020000040000fa
:0402b8003e100000f4
:020000040000fa
:0402bc003e100000f0
:020000040000fa
:0402c0003e100000ec
:020000040000fa
:0402c4003e100000e8
:020000040000fa
:0402c8003e100000e4
:020000040000fa
:0402cc003e100000e0
:020000040000fa
:0402d0003e100000dc
:020000040000fa
:0402d4003e100000d8
:020000040000fa
:0402d8003e100000d4
:020000040000fa
:0402dc003e100000d0
:020000040000fa
:0402e0003e100000cc
:020000040000fa
:0402e4003e100000c8
:020000040000fa
:0402e8003e100000c4
:020000040000fa
:0402ec003e100000c0
:020000040000fa
:0402f0003e100000bc
:020000040000fa
:0402f4003e100000b8
:020000040000fa
:0402f8003e100000b4
:020000040000fa
:0402fc003e100000b0
:020000040000fa
:040300003e100000ab
:020000040000fa
:040304003e100000a7
:020000040000fa
:040308003e100000a3
:020000040000fa
:04030c003e1000009f
:020000040000fa
:040310003e1000009b
:020000040000fa
:040314003e10000097
:020000040000fa
:040318003e10000093
:020000040000fa
:04031c003e1000008f
:020000040000fa
:040320003e1000008b
:020000040000fa
:040324003e10000087
:020000040000fa
:040328003e10000083
:020000040000fa
:04032c003e1000007f
:020000040000fa
:100400006f7421000eff24000e0188000000000020
:10041000000020000000e000020032000001200087
:100420002002880014000700160707000000e00003
:1004300003003a00c08924000100200002003700b8
:100440000000200001002000810f70000100320038
:100450000f000700000020000000e0000200320052
:1004600000000200000000005e49020000000000e1
:100470000040da000000fe00c03e20000000e00066
:1004800002003200002020009001880000000600d9
:10049000a1028800800478000000eb001f003700f4
:1004a000e284440054a0b4009905ba00e2844400f8
:1004b00054a0b4009906ba00e284440054a0b400e9
:1004c0000006eb00476fde00fd07b200ae018800ba
:1004d000636ce10003003a000ad801000000eb0061
:1004e0000e003700606ce10008003a00004deb00a0
:1004f0000a05e800020039003420ec000af0a000f0
:100500008b05e900f9ff3e00040037006168e10057
:10051000010032000086eb000b00070019c7ba008b
:100520001905ba000e04e00003003a000a00e000da
:10053000dbff3a0000000600fe07b200ae028800b2
:100540008a047800f5ff37000cd0a300e20f4d00bd
:100550001c00390089027800354dba000a05e80010
:10056000020039003420ec000af0a0008b05e900fd
:100570000f003200254dba000a05e80002003900dc
:100580003420ec000af0a0008b05e90008003200de
:100590000c00e0000600320015cdba000a05e800a4
:1005a000020039003420ec000af0a0008b05e900bd
:1005b0008984e80054a0b4000b00e000e2ff3a0098
:1005c000000006009902ba00055d78008b05e9007d
:1005d000f7ff3200c82ade00055d78008b05e900d0
:1005e000f3ff32000c00e000f1ff320019ddba0029
:1005f000eeff37003600f800c028a9000000eb002d
:10060000332307003600f800c0712100800778000e
:100610007800400000018800c048a90010002000b8
:100620002b2307003600f800c068a9002000200036
:10063000272307003600f800c088a90030002000fa
:10064000232307003600f800c608a9007000200028
:100650001f2307003600f800c408a900b0002000de
:100660001b2307003600f800809fbe00829fbe005b
:10067000849fbe00869fbe00889fbe008a9fbe00ea
:100680008c9fbe008e1f7800e6874700e0ce2f00cb
:10069000619380000080600060938800802b2100bf
:1006a0000008eb0010052100c228ab001600320044
:1006b00001e1a900104078008080fb00f680400036
:1006c00081804000020121002308800003b17800ee
:1006d0000421ef0001e1a8000004e00003003a005b
:1006e000619380000140a000619388001105210002
:1006f0008048e8003c0eab00b201320060938000fd
:100700001020b300ae0137001040780001e1a900cd
:1007100001052100914278000582fb00230880003a
:10072000ec004200020121008180400003b178000a
:100730000421ef0001e1a8000004e00006003200ff
:10074000e60041000083fb007503430006034300fd
:1007500062017b009108410062012100928041000a
:10076000b1808800265a2100968f50000400360080
:10077000609380000000a000609388008c01370027
:10078000e6592100968f5000870136000028a90005
:1007900083805000b1808800e14f50003600360061
:1007a000e34f500024003a0000828000f381800073
:1007b000830f50000a003100c5032100958f5100be
:1007c00007003900808050006b02420004024200a2
:1007d00040fd2f0005004000e0017a000389500031
:1007e000e081800001828000810f500022003900ea
:1007f000f3818000830f50001f00390000052100a5
:100800001081fb00a003b10090821000eb004100ba
:1008100001824000e600500061027a00048252002a
:10082000830152006a014100020141006101790027
:1008300002885100100037000040e9000080fb00f2
:10084000f60140008382410003012100e3827a0027
:10085000750040000000400063007800808f520067
:1008600005003100858050006b0242000402420006
:1008700063007a000089500000272100b2808000c8
:1008800071bb2000810f510008003e001000e800fd
:1008900080938800e40f50000500360060938000cc
:1008a0000050a00060938800010037000008eb00b2
:1008b000708280000000e00003003a00b4808000f5
:1008c000748288001b003700b1808000810f5000c7
:1008d0000200390001005000010037000080500084
:1008e0008105210032062000820f500002003e00e8
:1008f0009108e800010037008008eb00c182800009
:10090000c0122000808f500008003600c026210051
:1009100055800a00100000000000e00003003a00cb
:10092000609380000070a00060938800b580800014
:1009300075828800b8808000898080006055b8008a
:10094000890f5400090039006140b800ed05070027
:100950000005be006148b800ea0507000001be00be
:100960000a00be000e0807000005be009e80800041
:100970006066b8008e0f5400090039006140b8006d
:10098000e00507000006be006170b800dd05070045
:100990000001be000c00be00010807000006be00fa
:1009a000a28080006000b800820f54000e00390061
:1009b0006140b800e2bf9f00d20507000002be0000
:1009c0006fb997006110b800e4bf9f00f5bf9f00aa
:1009d000cc0507000001be006fba9700ffba970070
:1009e0000400be00ee070700723d2a0003f9230051
:1009f000a70507000000e0004200340082eb210060
:100a000053f823000c00be00a10507000000e00021
:100a10003c00340092c22500f3f823000c00be0015
:100a2000990507000000e00036003d0082eb210040
:100a300053f823000a00be00950507000000e000ff
:100a40003000340092c22500f3f823000a00be00f3
:100a50008d0507000000e0002a003d006148b80055
:100a6000a80507000005be006170b800a5050700d5
:100a70000001be000a00be00c90707000005be0055
:100a800032b22d0093f72300810507000000e0003b
:100a90000e0034003233230033f823000a00be0076
:100aa000790507000000e00008003d00c026210095
:100ab000100078006200600004003a00609380003b
:100ac0000010a00060938800c880880060938000b8
:100ad000800078000108b200040032008105210086
:100ae0008008eb000070a100080037000058a30048
:100af00007003200819388000050a10000a0a100ef
:100b000002003700609380000010a100609388000d
:100b100090808000a0808800818080009180880083
:100b2000ba8080008a808800609380000018a3004b
:100b30004d003200010121008088eb008180e80037
:100b40008088eb008180e8008088eb0031c6b3002c
:100b5000a225210092cf100040003a000038a300e7
:100b6000020032000030a1003b003700c025210008
:100b7000904078000000e800104378000080e80012
:100b8000904278000000e90010c1ea0020c0b300e4
:100b900082cf520005003a0001c0ea0000406b001d
:100ba0000080fb000000ea004f00de00112621005b
:100bb000114278008100e90091c0ea00814f5200a3
:100bc0000100320030c0b30031262100914178008d
:100bd0008100e90091c0ea0081cf5100010032009c
:100be00040c0b30051262100114178008100e90086
:100bf00091c0ea00814f51000100320050c0b300a3
:100c000071262100914078006726210097c3ea00f1
:100c100087cf500011003a000004e0000f003a00b6
:100c2000a0502100064878000000e8000548780040
:100c30000000e800044878000000e800034878005d
:100c40000000e800024878000000e8000148780051
:100c5000609380000020a00060938800a025210000
:100c60000048eb0049003700c08080008000eb00a6
:100c7000240507000004be006150b80021050700ec
:100c80000001be000800be00450707000004be00ca
:100c90003233230033f72300fd0407000000e00097
:100ca000060034006266260063f823000800be00d8
:100cb000f50407004f00de00010037000000eb00e4
:100cc000a22521009240e8000149780002c6b30045
:100cd00082cf500026003e00c2252100e1cf500007
:100ce00003003200f1cf500003003a00e22521005a
:100cf000429388000f00370012c2b30082cf500029
:100d000002003a00012621000e00370012c3b30092
:100d100082cf500002003a0021262100090037004e
:100d200012c4b30082cf500002003a0041262100d5
:100d30000400370012c5b30082cf500002003a0011
:100d400061262100419388004193800011017800c1
:100d500002014100820878000000e00002003a0031
:100d60000200a100010037000200a0008208780004
:100d700040c6b300a1252100914f100003003600aa
:100d8000609380000000a000609388006001210053
:100d90000008eb00b003b0000048eb000000e900e1
:100da0000048eb0002003700000521000548e8007c
:100db0003c0eab0003003a00609380001010b300bb
:100dc000609388001005210033c0b30090cf11005c
:100dd00003003e000000e90090cf11000300360040
:100de000609380000000a00060938800c02621006e
:100df0001000780070006000140032009c1607009c
:100e0000602d21009000e800b19688000081e80084
:100e1000928f50000d0039000008eb00d096800042
:100e2000e1968000f2ab200083002000820f50008a
:100e3000838f580005003e00a22d210014002000e1
:100e4000050020000419400005914800c02621003b
:100e5000100078006100600009003a0011a00a004b
:100e6000c20800000000a2000000400011468000ff
:100e70000110a10081007000114688002900370090
:100e8000100521000048eb000040eb000b0037008c
:100e90000081fb00ec014100010121008381410040
:100ea000838140008009eb0076014100020141008e
:100eb000828040008008eb000040e800e34f5000d3
:100ec000f3ff3600000521000048eb00a003b1004d
:100ed0000008eb00609380000030a0006093880061
:100ee0000088a30002003200c228a9000c003700cd
:100ef0000098a30002003200c228a80008003700b2
:100f000011a00a00c20800000000a200000040007a
:100f1000114680000110a100810070001146880078
:100f20000028a90001e8a9006f00b1004f07780070
:100f30004f06be004f05be004f04be004f03be006b
:100f40004f02be004f01be004f00be003600f90048
:100f5000004006003600f800809fbe00829fbe0061
:100f6000849fbe00869fbe00881f7800802c2100d1
:100f7000100078006104600010003a0010002000aa
:100f80003f1b0700200020003d1b07003000200011
:100f90003b1b070040002000391b070050002000c9
:100fa000371b0700409680000000a0004096880094
:100fb000b8a8880040b52000d0a8880009e8a9009a
:100fc0004f0478004f03be004f02be004f01be0029
:100fd0004f00be003600f90000400600809fbe00b2
:100fe000821f7800c06080004200de00315c80001b
:100ff000e48f50000b003a0041522100911840004c
:101000000001eb0091104900648040001048e800a6
:10101000700720008403e3000c003600600020000d
:101020000d003700315c8000e68f50000c003a0064
:10103000a1522100911840000001eb0091104900dd
:10104000648040001048e80070072000ba03e30005
:101050000d00360080002000305c8800250037003d
:10106000315c8000e88f50000b003a0001532100f2
:10107000911840000001eb0091104900648040008d
:101080001048e80070072000f003e3000c00360071
:10109000a0002000f0ff3700315c8000ea8f500094
:1010a0000b003a0061532100911840000001eb0051
:1010b00091104900648040001048e800700720004b
:1010c0002604e3000b003600c0002000e2ff3700da
:1010d000315c8000ec8f500006003a00c1532100c3
:1010e000911840000001eb0091104900648040001d
:1010f0001048e8000c28ab0002003a0030ad800038
:10110000305c88000c28a9004f0178004f00be0019
:10111000004006003600f800809fbe00829fbe009f
:10112000849fbe00869fbe00881f780000e8ab0049
:10113000cb03320000002100415e2100110060005d
:10114000130032006e80500010407800e14f5000d4
:1011500006003600e34f500004003200e74f500015
:1011600002003200e94f500009003a0020af800031
:1011700000c0a10020af8800a15d21006480500064
:1011800011487800f0ae800000f0a000f0ae8800ba
:10119000685d21001880fb008000eb00f00f50001c
:1011a000e08f580083003e00000601001000370069
:1011b0001d003700100037001b003700710037009a
:1011c0001c0037002c003700360037004300370082
:1011d00050003700550037007600370075003700a3
:1011e0007400370073003700660037006b0037006b
:1011f000a61107006f0037008000eb0010002000f0
:10120000790f0700e05d21001000e00004003d00c0
:1012100066004000100078007000600012003a0084
:1012200011c0b3006100370098110700184ce800a6
:10123000600037008000eb00100020006a0f0700fc
:10124000e05d21001000e00051003d00660040001c
:1012500010007800680060004d00320031c0b3001b
:10126000605d210001487800f0ae800000f0a10030
:10127000f0ae88004f0037008000eb001000200027
:10128000590f0700605d2100e80040001100e000f8
:1012900002003d00f1c0b300f2ff370031c0b300df
:1012a0004300370079110700705d210061c0b30071
:1012b00001487800e70040001100e00034003d00e4
:1012c000014020006d01400092806000300032003b
:1012d000a1c0b300014878002d0037008000eb006a
:1012e00010002000400f0700705d21009040780042
:1012f0000104e000020032000148e9002d0037003f
:10130000f0ae800000f0a100f0ae880071c0b30024
:10131000260037005d110700e1c0b300705d2100b9
:10132000014878000000e9001a0037008000eb0057
:10133000100020002c0f0700705d21001040780085
:1013400091c0b3000004e00018003200e44f5000e8
:1013500009003a00e05d21001000e00006003d00b9
:1013600091c0b3006800500001487800f0ae8000e2
:1013700000f0a100f0ae8800705d21001048e90087
:101380000c0037008000eb0010002000160f070053
:10139000605d21001048e800060037008000eb0087
:1013a00010002000100f070031c0b300605d210065
:1013b0000148780000002100216221001100600036
:1013c000130032006e80500010407800e14f500052
:1013d00006003600e34f500004003200e74f500093
:1013e00002003200e94f500009003a0010b18000bd
:1013f00000c0a10010b1880081612100648050000c
:1014000011487800e0b0800000f0a000e0b0880053
:10141000486121001880fb008000eb00f00f5000b5
:10142000e08f580083003e000006010010003700e6
:101430001d003700100037001b0037007100370017
:101440001c0037002c0037003600370043003700ff
:101450005000370055003700760037007500370020
:101460007400370073003700660037006b003700e8
:10147000321107006f0037008000eb0020002000d1
:10148000d90e0700c06121001000e00004003d00fb
:1014900066004000100078007000600012003a0002
:1014a00011c0b3006100370024110700184ce80098
:1014b000600037008000eb0020002000ca0e07000b
:1014c000c06121001000e00051003d0066004000b6
:1014d00010007800680060004d00320031c0b30099
:1014e0004061210001487800e0b0800000f0a100d8
:1014f000e0b088004f0037008000eb0020002000a3
:10150000b90e070040612100e80040001100e00032
:1015100002003d00f1c0b300f2ff370031c0b3005c
:1015200043003700051107005061210061c0b3007e
:1015300001487800e70040001100e00034003d0061
:10154000014020006d0140009280600030003200b8
:10155000a1c0b300014878002d0037008000eb00e7
:1015600020002000a00e070050612100904078006c
:101570000104e000020032000148e9002d003700bc
:10158000e0b0800000f0a100e0b0880071c0b300be
:1015900026003700e9100700e1c0b30050612100c8
:1015a000014878000000e9001a0037008000eb00d5
:1015b000200020008c0e07005061210010407800b0
:1015c00091c0b3000004e00018003200e44f500066
:1015d00009003a00c06121001000e00006003d0053
:1015e00091c0b3006800500001487800e0b080006e
:1015f00000f0a100e0b08800506121001048e9002f
:101600000c0037008000eb0020002000760e070061
:10161000406121001048e800060037008000eb0020
:1016200020002000700e070031c0b300406121008f
:1016300001487800000021000166210011006000cf
:10164000130032006e80500010407800e14f5000cf
:1016500006003600e34f500004003200e74f500010
:1016600002003200e94f500009003a0000b3800048
:1016700000c0a10000b388006165210064805000b3
:1016800011487800d0b2800000f0a000d0b28800ed
:10169000286521001880fb008000eb00f00f50004f
:1016a000e08f580083003e00000601001000370064
:1016b0001d003700100037001b0037007100370095
:1016c0001c0037002c00370036003700430037007d
:1016d000500037005500370076003700750037009e
:1016e0007400370073003700660037006b00370066
:1016f000bd1007006f0037008000eb0030002000b5
:10170000390e0700a06521001000e00004003d0034
:1017100066004000100078007000600012003a007f
:1017200011c0b30061003700af100700184ce8008b
:10173000600037008000eb00300020002a0e070018
:10174000a06521001000e00051003d00660040004f
:1017500010007800680060004d00320031c0b30016
:101760002065210001487800d0b2800000f0a1007f
:10177000d0b288004f0037008000eb00300020001e
:10178000190e070020652100e80040001100e0006c
:1017900002003d00f1c0b300f2ff370031c0b300da
:1017a00043003700901007003065210061c0b3008e
:1017b00001487800e70040001100e00034003d00df
:1017c000014020006d014000928060003000320036
:1017d000a1c0b300014878002d0037008000eb0065
:1017e00030002000000e0700306521009040780096
:1017f0000104e000020032000148e9002d0037003a
:10180000d0b2800000f0a100d0b2880071c0b30057
:101810002600370074100700e1c0b30030652100d6
:10182000014878000000e9001a0037008000eb0052
:1018300030002000ec0d07003065210010407800da
:1018400091c0b3000004e00018003200e44f5000e3
:1018500009003a00a06521001000e00006003d00ec
:1018600091c0b3006800500001487800d0b28000f9
:1018700000f0a100d0b28800306521001048e900d6
:101880000c0037008000eb0030002000d60d070070
:10189000206521001048e800060037008000eb00ba
:1018a00030002000d00d070031c0b30020652100ba
:1018b0000148780000002100e1692100110060006a
:1018c000130032006e80500010407800e14f50004d
:1018d00006003600e34f500004003200e74f50008e
:1018e00002003200e94f500009003a00f0b48000d5
:1018f00000c0a100f0b4880041692100648050005c
:1019000011487800c0b4800000f0a000c0b4880086
:10191000086921001880fb008000eb00f00f5000e8
:10192000e08f580083003e000006010010003700e1
:101930001d003700100037001b0037007100370012
:101940001c0037002c0037003600370043003700fa
:10195000500037005500370076003700750037001b
:101960007400370073003700660037006b003700e3
:10197000481007006f0037008000eb004000200097
:10198000990d0700806921001000e00004003d006f
:1019900066004000100078007000600012003a00fd
:1019a00011c0b300610037003a100700184ce8007e
:1019b000600037008000eb00400020008a0d070027
:1019c000806921001000e00051003d0066004000e9
:1019d00010007800680060004d00320031c0b30094
:1019e0000069210001487800c0b4800000f0a10027
:1019f000c0b488004f0037008000eb00400020009a
:101a0000790d070000692100e80040001100e000a6
:101a100002003d00f1c0b300f2ff370031c0b30057
:101a2000430037001b1007001069210061c0b3009c
:101a300001487800e70040001100e00034003d005c
:101a4000014020006d0140009280600030003200b3
:101a5000a1c0b300014878002d0037008000eb00e2
:101a600040002000600d07001069210090407800c0
:101a70000104e000020032000148e9002d003700b7
:101a8000c0b4800000f0a100c0b4880071c0b300f1
:101a900026003700ff0f0700e1c0b30010692100e6
:101aa000014878000000e9001a0037008000eb00d0
:101ab000400020004c0d0700106921001040780004
:101ac00091c0b3000004e00018003200e44f500061
:101ad00009003a00806921001000e00006003d0086
:101ae00091c0b3006800500001487800c0b4800085
:101af00000f0a100c0b48800106921001048e9007e
:101b00000c0037008000eb0040002000360d07007d
:101b1000006921001048e800060037008000eb0053
:101b200040002000300d070031c0b30000692100e3
:101b30000148780000002100c16d21001100600003
:101b4000130032006e80500010407800e14f5000ca
:101b500006003600e34f500004003200e74f50000b
:101b600002003200e94f500009003a00e0b6800060
:101b700000c0a100e0b68800216d21006480500003
:101b800011487800b0b6800000f0a000b0b6880020
:101b9000e86c21001880fb008000eb00f00f500083
:101ba000e08f580083003e0000060100100037005f
:101bb0001d003700100037001b0037007100370090
:101bc0001c0037002c003700360037004300370078
:101bd0005000370055003700760037007500370099
:101be0007400370073003700660037006b00370061
:101bf000dd0f07006f0037008000eb005000200071
:101c0000f90c0700606d21001000e00004003d00a9
:101c100066004000100078007000600012003a007a
:101c200011c0b30061003700cf0f0700184ce80067
:101c3000600037008000eb0050002000ea0c070035
:101c4000606d21001000e00051003d006600400082
:101c500010007800680060004d00320031c0b30011
:101c6000e06c210001487800b0b6800000f0a100cf
:101c7000b0b688004f0037008000eb005000200015
:101c8000d90c0700e06c2100e80040001100e000e2
:101c900002003d00f1c0b300f2ff370031c0b300d5
:101ca00043003700b00f0700f06c210061c0b300a3
:101cb00001487800e70040001100e00034003d00da
:101cc000014020006d014000928060003000320031
:101cd000a1c0b300014878002d0037008000eb0060
:101ce00050002000c00c0700f06c210090407800ec
:101cf0000104e000020032000148e9002d00370035
:101d0000b0b6800000f0a100b0b6880071c0b3008a
:101d100026003700940f0700e1c0b300f06c2100eb
:101d2000014878000000e9001a0037008000eb004d
:101d300050002000ac0c0700f06c2100104078002f
:101d400091c0b3000004e00018003200e44f5000de
:101d500009003a00606d21001000e00006003d001f
:101d600091c0b3006800500001487800b0b6800010
:101d700000f0a100b0b68800f06c21001048e90026
:101d80000c0037008000eb0050002000960c07008c
:101d9000e06c21001048e800060037008000eb00ee
:101da00050002000900c070031c0b300e06c21000f
:101db00001487800862bef00400020004e03e2002f
:101dc0000c003a00600020008403e20009003a00a1
:101dd00080002000ba03e20006003a00a0002000c4
:101de000f003e20003003a002604e20002003200a1
:101df000c0002000305c88000040eb00af150700f9
:101e0000328080006201610003003a00500020002f
:101e100040588800092ba8004c23ef004001200007
:101e2000b01a880070ae8000101c8800111c800061
:101e30008100e900c0152000808f500002003e00a4
:101e40000080e800101c8800101c80007400400016
:101e5000601c880061b08000010078008203b4003b
:101e6000800178006a804100c01d88008101e9007e
:101e7000c0152000808f510005003e000100780051
:101e8000b803b500e115200080804000c11d880026
:101e9000c01d800074004000101e880051b28000f8
:101ea00001007800b803b400800178006a80410026
:101eb000701f88008101e900c0152000808f51004b
:101ec00005003e0001007800ee03b500e11520009a
:101ed00080804000711f8800701f800074004000e7
:101ee000c01f880041b4800001007800ee03b400f8
:101ef000800178006a804100202188008101e9008a
:101f0000c0152000808f510005003e0001007800c0
:101f10002404b500e11520008080400021218800c4
:101f2000202180007400400070218800805a210028
:101f30001008e800605e21001008e80040622100ff
:101f40001008e800206621001008e800006a21005f
:101f50001008e800e06d21001008e800802821004a
:101f60001008e8007a0040001008e80060512100e5
:101f70001008e800202721001008e800c02c2100ec
:101f80001008e800740050001008e80068004000e5
:101f90001008e8000080e8001008e8003051200038
:101fa0006009e300fdff36000200e0000c003a008b
:101fb000092ba900090ba8005094800011032000f0
:101fc000810f500006003e00b26080000129210010
:101fd0004211de0091084100e68050008008e800d0
:101fe000860be200080032000c28ab000300320030
:101ff000305c800030ad8800862bef000c28a900f3
:102000002c28a800070037000c28ab000300320082
:10201000305c800030ad8800862bef000c28a900d2
:102020002c28a900d06020006009e300fdff3600e5
:1020300051e9a900d01cb000204b880010002000fe
:10204000304b88006029ef0051e9a8000040eb0008
:10205000dd1407002ee3a80006e4a80000e8a900ac
:102060004f0478004f03be004f02be004f01be0078
:102070004f00be003600f900004006000040da00c4
:102080000000fe000000050014002000dc03370003
:10209000f4ff2f00da0337000001be001b00070029
:1020a0000470a70003f0a10003f8a30013003a0096
:1020b0006509b10010003200090035006928e1000f
:1020c000020035000100280000000500000040006b
:1020d000818048008502e900fcff3a00000006000c
:1020e000f88f4200050035008100d1000080d30048
:1020f0008502e800fcff3a00000006008000eb00cb
:10210000000005006011b800d8033700c70ade00e0
:10211000f107b200f50fb20008003200e1cf420033
:10212000020032000170a00024000500810f700041
:10213000010032000408050044000500810f700012
:1021400002003a00140005008502e900000040008a
:1021500081c04800fcff3b000170a0002400050086
:1021600007f82700078361000638e10004003a0001
:10217000f7072000878361008703710001003a00a0
:1021800003f0a200889fbe008a9fbe008c9fbe0005
:10219000470ade000480a100c71ade000580a10006
:1021a000070028000785600087856100f70f200081
:1021b0000720e1009e0032000728e1009c00320069
:1021c000010678000400e000b4003200f7072000a8
:1021d000878060000170a0000500e000c0003200b0
:1021e000f7072000878161000370a00005065200f8
:1021f0000f003a000b50e1000b0032000308e10031
:1022000002003a000200e1007e00320002045000a9
:1022100083845800040031000001fd008101fd00ad
:102220008402fd008a05fd006044b80021003700eb
:102230000520e10005003d000001fd008101fd00d9
:102240008402fd008a05fd00050652007a60e10067
:10225000050035000170a1004722dd008480700078
:102260008a807000630037006044b800ef026600a7
:1022700007ff2f00070666000500e0000600340097
:10228000f08312008714dd000511de00071bdd005e
:10229000060171008519de007060e100050035005f
:1022a0000904780082047800030178008001eb00c3
:1022b000700656000b50e10003003a000200400097
:1022c000838048000400370060041400e0841c0090
:1022d00002005800838058000188a30006003200e5
:1022e0008100d1000080d3008984d3000884d3000a
:1022f0000402e800270037000178a30025003a0017
:102300000100e000030032008186cf00698656009c
:102310000a0037008c0020000000e00004003a00b2
:1023200009007800880478000004eb007002520075
:102330008086cf000d0646000c06e9007060e100c3
:1023400006003500800078000900780088047800d5
:102350000004eb0070065600700252000c00e00012
:102360000c0034008c08dd00f00316000703de00cb
:10237000868070000c00dd00074bde000600700058
:102380008c4cdd000743de00868474000c44dd00c5
:102390000c0252006120e100200035006101600064
:1023a0000700280087816400f7ff27008783640007
:1023b000070374000300e00006003200820373008c
:1023c000040032000000e800e08048000188a3001b
:1023d0000e003a00f70f20000720e1004a003d0000
:1023e0000170a1004722dd00810072008a80700028
:1023f0000000be004f06be004f05be004f04be00e9
:10240000000006006000b800faff37008100d1002c
:102410000080d3000402e800eeff370004017800da
:1024200089017400790207008a807000f1ff37008b
:102430006b030700070278000001fd008101fd0029
:102440006703070087027800850372000778a300fe
:10245000040032000001fd008101fd002f02070091
:10246000e4ff3700850362000768a300080032001c
:102470000b50e10003003200f0ff2f00f1ff2700b6
:10248000dcff37000001fd008101fd00d9ff3700ae
:102490000468a300d7ff3200faff3700f8ff2700d7
:1024a000888360000b003a000000e00009003a0059
:1024b0008303640082837300020032000200be00c6
:1024c000ccff37000b50e100ceff3a000200be0007
:1024d000c8ff370014002000810064003eff370071
:1024e000f8ff27008883610004003a000200e00042
:1024f00002003a008c007800beff37001500200073
:102500008301640039ff370001f827000000200034
:1025100081007500b7ff37000383680007002800bb
:1025200007036300470ade000480a100c71ade002b
:102530000580a100f70f20000720e10042003200d3
:102540000728e10040003200889fbe008a9fbe003d
:102550008c1f7800f107b200f307b2000400e0001e
:10256000640032000170a0000500e0006800320045
:102570000370a00085054200eb07b1000204b8001b
:102580000302b8008484440060854a00020ab8004f
:10259000848444000a854a00030ab8000405450003
:1025a000040033000804d0008984d2000a85d200d8
:1025b0008b05e9006158e1003d0035000210200064
:1025c000090161000308200089816100f7072000ec
:1025d0008783640008867300c84cde00c853dd00a2
:1025e000878474004855de000300e00006003200d6
:1025f00082037600040032008904e80060054d0083
:102600000a88a3000c003a00f70f20000758e100e9
:1026100044003d000a70a100c75ddd000a85750019
:102620008a007300090078004f0678004f05be004d
:102630004f04be00000006000a05d1008984d300c3
:102640008b05e800f0ff3700881f7800060478004b
:10265000e3020700070278000001fd008101fd0090
:10266000df02070087027800850372000778a30065
:10267000050032000001fd008101fd00a7010700f7
:102680004f04780000000600850372000748a3008d
:1026900003003200f0ff2f00f1ff2700f8ff3700a2
:1026a0000000200001f8270088807000f4ff370048
:1026b000880178004848dd00808171004848de00cc
:1026c000c850dd0001007000c850de00060478002c
:1026d0000b017800cd01070088807000d2ff370021
:1026e0000500e00005003200170020007d00070013
:1026f0009dff370081037000f9ff3a0086007800e3
:102700004f0678004f05be004f04be0000000500d4
:1027100083037100f9ff32002700200071000700d9
:1027200094ff370001f8270086807000f4ff37001f
:1027300002025000838258006100390003037100d7
:102740006200320005037200590032000300e0000d
:102750005500330017003a000100e0004b00320042
:102760000208e10006003100050009004288d80097
:10277000010178008001eb008000eb000000060002
:102780006110e100550032000002be0005000900a2
:102790008280d800800278000400780005000900db
:1027a0004288d800010178008001eb0085007800a4
:1027b00000000600889fbe008a9fbe008c9fbe005e
:1027c0000386cf000c06e9008c1f78008c19dd0011
:1027d000f00216000512de00848171000c11dd008c
:1027e0000003be008004eb00053cde008c3bdd00f6
:1027f0000532de00848373000c33dd0007007800af
:1028000088007800050009004388d8000202b8005b
:102810000306b8008c82420060854e008005eb0004
:102820000402530085825b000a055c008b855c0016
:102830000b0033008000eb004f0678000c21de0017
:10284000700516000a2ddd000a0171008c29de00da
:102850004f06be004f05be004f04be00000006003c
:102860000202420083824a0060054d00e0854d006f
:102870000000e9000b00e000eeff3d000202420014
:1028800083824a000000e900eaff37000000e00010
:1028900012003200050009000280d8000101780012
:1028a0008000eb00000006000401be0001003700bc
:1028b0006011b800100020008000eb00000006004e
:1028c0000001be006000b800000006000001be006c
:1028d000f0ff2f00f1ff2f00000006006011b8008c
:1028e00000000600889fbe000004eb006138e10094
:1028f00016003a000100e00008003a00c800de00bf
:102900004800dd00880020000100e00003003a00dc
:10291000c800de004800dd00680444008184cf0068
:10292000e9845400060034008908dd00f0831400b7
:102930008703de00878070000900dd000904440081
:10294000610214004f04be00000006000300e00016
:1029500008003a00c811de004811dd0088002000a0
:102960000300e00003003a00c811de004811dd005a
:10297000680444008384cf00e984540006003400d6
:102980008919dd00f08314008713de008781710050
:102990000911dd0009044400e1021400e9ff3700d9
:1029a000889fbe008a9fbe008c9fbe001b00200037
:1029b0000202be00058668000600280006066600c2
:1029c0004709de00f20fb200820032000243e80045
:1029d00080003200c729de00f30fb2007d00320014
:1029e0000343e8007b003200f107b2000170a00051
:1029f000f507b2000570a000c708dd004903de003e
:102a0000868070004700dd00c72add004923de0014
:102a1000868272004722dd00030551000403500046
:102a20008583580003003100000040008180480089
:102a30000a05e9008c1f78008a9fbe000400500040
:102a4000858058000402420085824a000000400050
:102a5000818048000005eb000004be006033b80030
:102a60000406be000d48e1005600310005000900d3
:102a70004dccd8000c01b8000d02b8008481410093
:102a800060824a008283530003045c0084845c00fb
:102a900060055d000a00e00025003a00800578002e
:102aa0000d40e100490031008800780007007800ff
:102ab000050009004d88d8000c01b8000d02b800cf
:102ac0008481410060824a006003110083835b00bf
:102ad00004045c00e0845c000900e00021003a008e
:102ae0004f01be000300e0002b003200e301600054
:102af000070673008c8171000100320064007000d1
:102b00004200de004e5edd000c007000c258de00a8
:102b100001e0a000e7000700cf017800818071008c
:102b20004f06be004f05be004f04be000000060069
:102b30008c8343000d044c00e0844c0060054d0084
:102b40000000e9000a00e000d4ff32008c8343005b
:102b50000d044c00e0844c0060054d000000e900cd
:102b6000ceff37000c0343008d834b0060044c0004
:102b7000e0844c000000e9000900e000d8ff3200ca
:102b80000c0343008d834b0060044c00e0844c0038
:102b90000000e900d2ff37004200de004e5edd009b
:102ba0000c007000c258de0001e0a000cf017800e8
:102bb0000300e000daff320060001000e08018003f
:102bc000d7ff3700f0ff2f00aaff3700f0ff2f00dc
:102bd000b9ff37000404be008101070087067800b2
:102be0000004fd008104fd007d01070007836600ed
:102bf0000678a300030032000960a7000800be00a9
:102c00002c0037000d78a300020032000800be003f
:102c1000280037000778a30026003a0001f0a10041
:102c200009f0a1000668a30003003200f1ff2700ad
:102c3000f0ff2f00baff37000d68a3000300320039
:102c40000800be008c807000b5ff37000768a30045
:102c500007003a000648a30003003200f1ff2700f6
:102c6000f0ff2f00aeff37000d48a3000300320035
:102c70006000b8008c807000a9ff37000748a300ef
:102c80000400320001f82700000020008c80700052
:102c9000a3ff37002a0007000004fd008104fd00a7
:102ca00002057800260007000802be008a017800ad
:102cb00059ff37000160a0001202200072808800d6
:102cc00097ff37000100e000120032000500e0002d
:102cd00010003200889fbe008a9fbe008c9fbe00fd
:102ce0000006eb0001f8a3000300320060001000b2
:102cf000e08018000cf0a00005f8a30003003200eb
:102d000060021200e0821a000cf0a2008005eb00c5
:102d100041ff37006000b800020005000478a300fe
:102d2000040032000578a300030032000168a3000c
:102d300001003a000200be000160a0000000060091
:102d40004f0ade004709de00f107b200f20fb200c1
:102d50000b003200f207b1000170a000c708dd00cf
:102d6000c901de00838070004700dd000400a6007a
:102d70000000060060001000e0801800000006005f
:102d8000810f700001003a00000006008182cf0030
:102d90000500e00010003e008082cf00ee8242007d
:102da0007028e1000400390007003e008000780030
:102db0000000eb000e003700708312008600de007a
:102dc0000500dd000a003700708352008600dd0038
:102dd0000000eb0006003700e28252008508dd00ab
:102de000708312000603de00868070000500dd009f
:102df0007507b0000501ea000400a6000000060007
:102e000060001000e0801800000006000100e000f3
:102e100026003200610111007810e10023003c001f
:102e20006022b8007010e1000400350080027800d4
:102e3000010078008000eb00700151000200e0000a
:102e40000900340070031100062add00822ade002a
:102e50008603dd00878272000200de00860bdd0043
:102e6000070070008208de0084817100f4ff2700f3
:102e70000482620084817100040028008482620060
:102e80006102600005f0a6000000060004827100e7
:102e9000070032000000e800e08048000000060063
:102ea0000002be006000b800efff37006000b8000d
:102eb0000000060081017000270032008002eb0054
:102ec00001f8a3000300320060001000e080180049
:102ed00015002000f4072000020242002000340008
:102ee000f70320008703600006042000000363004e
:102ef00002082000000161004700de00c909dd0072
:102f000000807100c708de000600e0000800320003
:102f100087037100060032001000b0000180b0008d
:102f20000188a30002003200c108de000402e800ac
:102f3000f107b200f30f20000320e10003003d0081
:102f40004722dd00810072002900370001f82700c8
:102f50000000eb00260037006000b800000006000b
:102f6000680212007f20e100020034006000b80017
:102f70001f0037006011b8007020e1000400350028
:102f800080017800010078008000eb0070025200a0
:102f90000400e00009003400f00312000719dd000e
:102fa0008419de000703dd00868171000400de0065
:102fb000070bdd00060070008408de00f7ff270025
:102fc0008383630087037100060028000303630006
:102fd000070032000700e00003003a0061016000d2
:102fe00002817300020032001000b0000180b000c6
:102ff0000500a6000000060001f0a0000000060089
:10300000889fbe008a9fbe00841f78006c00070066
:103010004f00780011003300f0ff2f00838f6c0009
:1030200006003b00040565000a00a7000800370001
:1030300009f0a6001000200008003700820f54009d
:10304000838f5c00030039001000200001003e0067
:103050000000200009f0a7000000ea004f05be00b4
:103060004f04be000000e00000000600889fbe0084
:103070008a9fbe0000827000040271000482710009
:10308000260032000004be000200be006011b8003d
:103090006b092000950220000182cf000a00390050
:1030a0000541b1000082cf00070039000541b100a1
:1030b0000982cf00040039000541b1000882cf0029
:1030c000010039000541b1000542520012003200f2
:1030d0000a003b0082817100610164008100d1001f
:1030e0000080d3008984d3000884d3008b05e800d6
:1030f0000442e800f7ff3a000700370008044400e4
:1031000089844c0000004800818048008b05e9005c
:103110000442e900f9ff3a00030007004f05be0032
:103120004f04be00000006008100200061805500b1
:103130000b003d000b00200061fe2f000100e100ac
:103140001d00340082817100610164008904d10096
:103150000884d3000000e800faff3a007100200064
:10316000610064000300700002006000090032008a
:1031700061044400e0844c000988a5000500320089
:103180008b05e8006808e10002003a008904d100dc
:103190000884d300f20f20000258e10005003d0032
:1031a000c75ddd00f907b20089807500080078006e
:1031b000000006000bf827008b00780000000500d7
:1031c0000004be00d1fb07000003be000405be00e2
:1031d0000200be00cdfb0700844f75000000060012
:1031e0002700200001f0a70017002000470bde0099
:1031f000f60fb200040032000643e8000a00320075
:103200004702b3000000060001037800f607b20091
:103210000603700002003a000703b3000000060036
:103220008702b3000000060001037800f607b20031
:1032300006037000020032000770a00000000600c4
:083240000760a0000000060079
:020000040000fa
:1032480000000000000000000742000032390000c2
:103258006f1200008339000034800000b739000085
:10326800faed0000eb390000b3ef00000a3a000065
:10327800524900001d3a0000f0a200002f3a000059
:103288008ffc0000413a00002e560000543a00001e
:10329800cdaf0000663a00006c090000793a0000e2
:1032a80085b10000853a000055de00008e3a000026
:1032b800240b0000983a0000f4370000a13a0000ff
:1032c800c3640000aa3a000092910000b33a0000db
:1032d80062be0000bc3a000031eb0000c53a0000b5
:1032e80001180000cf3a0000d0440000d83a00008e
:1032f8009f710000e13a0000118d0000ee3a0000d5
:103308000ef80000fc3a0000c0090000053b000070
:1033180062f80000083b000004e700000c3b0000d6
:10332800a6d50000103b000048c40000143b000074
:10333800eab20000183b0000524900001d3b0000a3
:10334800f4370000213b00005bce0000253b000065
:10335800c36400002a3b00002bfb00002e3b00004a
:1033680058390000343b0000c0cf0000383b000053
:10337800ed0d00003e3b00001b4c0000433b0000ed
:10338800488a0000483b00003b7000004e3b0000ac
:103398002e560000543b00005b940000593b00008f
:1033a80014220000603b000007080000663b000094
:1033b800c09500006c3b000079230000733b0000bf
:1033c80031b10000793b000058730000803b0000d9
:1033d80034ba0000833b0000d6a80000873b0000f9
:1033e800964300008b3b0000383200008f3b000002
:1033f800da200000933b00007c0f0000973b0000a0
:10340800005200009b3b0000859400009f3b000099
:10341800ed2a0000a43b000055c10000a83b0000b5
:10342800bc570000ad3b000024ee0000b13b00009b
:10343800522c0000b73b00009c160000bc3b00006b
:10344800ca540000c13b0000f7920000c63b0000d0
:1034580007250000cc3b000017b70000d13b000057
:103468000a9d0000d73b0000fd820000dd3b000004
:10347800d3bc0000e33b0000a9f60000e93b0000d4
:1034880062840000f03b00001b120000f73b0000c4
:10349800b6f30000fd3b0000a96a0000023c0000f2
:1034a8005a2f0000063c000019ca0000093c000021
:1034b800c98e00000d3c00006b7d0000113c00002f
:1034c800ff950000153c000092ae0000193c00007a
:1034d80017f100001d3c00008d5d0000223c00003b
:1034e80004ca0000263c00005d8a00002b3c000056
:1034f800b64a0000303c00000f0b0000353c0000cd
:103508004b1f00003a3c0000873300003f3c00009e
:10351800a69b0000443c0000c50300004a3c000094
:10352800d59500004f3c0000d7510000553c0000e5
:10353800ca3700005b3c0000ae470000613c000059
:1035480084810000673c00004be500006d3c0000f2
:1035580004730000743c0000a05400007b3c000091
:103568001e1b0000813c0000ddb50000843c00000b
:1035780095650000883c0000452a00008c3c00004e
:10358800ef030000903c000089070000943c000015
:103598001d200000983c0000a94d00009c3c000044
:1035a80027a50000a03c00009d110000a53c0000dc
:1035b80005a80000a93c000065530000ae3c0000cf
:1035c800b7280000b33c0000fa270000b83c000010
:1035d800363c0000bd3c0000637a0000c23c00009d
:1035e80082e20000c73c00009a5f0000cd3c00006a
:1035f8009b1b0000d33c000096ec0000d83c000068
:1036080082e70000de3c000057210000e53c000096
:1036180026700000eb3c0000dffd0000f13c0000dc
:1036280090a00000f83c00002c820000ff3c000045
:1036380059510000033d000018ec0000063d000051
:10364800c9b000000a3d0000f67f00000e3d0000f2
:1036580014790000123d00002b870000163d000081
:103668003baa00001a3d00003cf700001e3d000088
:1036780036590000233d000021e50000273d0000e9
:10368800058600002c3d0000db500000313d0000a5
:10369800253b0000363d0000e54400003b3d0000ae
:1036a8001a6e0000403d000040c10000453d00008a
:1036b800573e00004b3d0000e4da0000503d00009a
:1036c80062a10000563d0000d19100005c3d000061
:1036d800aeb60000623d000001fb0000683d00003e
:1036e800446900006f3d0000f60b0000763d0000c5
:1036f80099d800007c3d0000d5ec0000813d000019
:1037080094870000853d00004c370000893d00008b
:103718009eea0000903d000039ee0000943d000054
:103728000b0c0000993d0000524900009d3d00002f
:103738000da60000a13d0000001d0000a63d0000f0
:10374800a6b80000aa3d0000c1730000af3d00000c
:10375800514e0000b43d000056480000b93d00003d
:103768004c6c0000be3d0000b8af0000c33d000037
:10377800151d0000c93d0000e7a90000ce3d00006e
:10378800e9650000d43d00009d460000da3d0000d8
:1037980044510000e03d0000db850000e63d0000ec
:1037a800a3e90000ec3d00005c770000f33d000059
:1037b80044340000fa3d00002e900000003e000056
:1037c800d21d0000043e00004bc80000073e000068
:1037d8005d8a00000b3e0000a56600000f3e000059
:1037e800255d0000133e000019730000173e00001d
:1037f80044a300001b3e0000e5f200001f3e00004d
:103808005b5f0000243e000046eb0000283e0000fd
:10381800469900002d3e0000ba660000323e0000c6
:10382800e2580000373e00007f6a00003c3e00007e
:1038380072fe0000463e0000c78000004c3e0000bb
:103848006f2a0000523e00006afb0000573e00004d
:10385800b6f300005d3e000071200000643e0000e9
:10386800016a00006a3e0000ffe70000703e0000a9
:103878008e920000773e00004c6c00007e3e0000f7
:10388800edbb0000823e00009b5a0000863e00000f
:10389800301200008a3e0000fce300008d3e00006c
:1038a8004ed10000913e000077db0000953e0000fd
:1038b800260100009a3e0000aa4300009e3e000038
:1038c800a4a50000a23e0000c4250000a73e0000f9
:1038d800a8c60000ab3e000051880000b03e0000c2
:1038e800be6a0000b53e00008f700000ba3e0000be
:1038f800c4990000bf3e00005ce60000c43e000022
:10390800475a0000ca3e000034f40000cf3e0000d1
:1039180074b50000d53e0000569f0000db3e000055
:1039280078b40000e13e00008cf30000e73e0000a0
:10393800315f0000ee3e0000b6f80000f43e0000e3
:103948001ac00000fb3e0000ff5b0000013f0000c2
:10395800d8f00000043f0000999e0000083f0000d6
:10396800906600000c3f000066490000103f000010
:10397800c3470000143f0000f6620000183f000033
:10398800569a00001c3f0000ddef0000203f0000b9
:10399800d8640000253f0000a1f80000293f00007e
:1039a8002ead00002e3f000080820000333f000053
:1039b8008d7a0000383f0000ff9500003d3f000071
:1039c8007cd50000423f0000ac390000483f0000b1
:1039d80087c400004d3f0000b4760000533f00004c
:1039e800db500000593f0000f35400005f3f000027
:1039f800a5830000653f000098dd00006b3f0000d4
:103a08006b650000723f00001e1b0000793f00003c
:083a180000000000803f0000e7
:020000040000fa
:103a2000402c210010007800620060002600320067
:103a3000005121001081fb00501020000091b900be
:103a4000b2ad8800115121001181fb000091b90035
:103a5000a2af88008100e8001181fb000091b9004d
:103a600092b188008100e8001181fb000091b9004b
:103a700082b388008100e8009180fb000088b900d3
:103a800070b58800209680000010a1000020a000e2
:103a900020968800509680000040a1000000a00001
:103aa00050968800402a21001000780064006000d1
:103ab00005003200202a21000008eb00209580003c
:103ac0000050a000209588000000060040712100f1
:103ad000100078006200600004003a00602c2100b1
:103ae00010007800610060005d0032000690ab00bd
:103af0005b003200c026210055800a001000000043
:103b00000000e00013003200f0b68000e10f50002a
:103b100053003600e06d21000008eb0060b7800024
:103b200061042000810f500002003600c16e2100a8
:103b30008008e90060b78000ca1507002096800061
:103b40000020a0002096880040062000f095880004
:103b500000000600602c2100100078006100600069
:103b60000c003200402a2100100078006400600040
:103b700008003a00c06e21001000e80060b788001d
:103b8000b8150700209680000020a000209688002d
:103b9000000006009196800060b78000810f500001
:103ba00027003200402a21001000780064006000e5
:103bb000080032002095800022292100928f5000b9
:103bc000020031000060a000010037000060a10089
:103bd0002095880040042000412a21001100600047
:103be000e40f50001e003200f1b68000e02c2100ee
:103bf000908f50001a003600e06d21000008eb00a5
:103c0000ee00400060b78000222d2100920f50008e
:103c1000020031008008e800010037008008e90058
:103c200060b780008f150700209680000020a0005c
:103c3000209688002003200070968800000006006f
:103c4000a0b880000010a100a0b88800e06d21009d
:103c50000008eb00209580000060a10020958800fe
:103c600000000600889fbe008a9fbe008c1f78005f
:103c7000402c21001000780064006000a200320097
:103c8000209680000020a1002096880030968000b9
:103c90000000a1003096880008032000402a21007f
:103ca00010046400b1ad8000f00f540005003a002c
:103cb0006108b80013f90700329580004395800031
:103cc000040037006108b8000ef9070032ac80002c
:103cd00043ac800010fa0700eff8070000067800f8
:103ce0000c00e00005003a00bcad80000cf0a7001d
:103cf0000c06ea000c06ea004f66de000c00e90044
:103d0000e60f500003003e00309680000000a00047
:103d100030968800a1af8000f00f540005003a00f3
:103d20006108b800f7f807003295800043958000dd
:103d3000040037006108b800f2f8070032ac8000d8
:103d400043ac8000f4f90700d3f807008005780041
:103d50000b00e00005003a00abaf80000bf0a700bd
:103d60008b05ea008b05ea00cf5dde000b00e90061
:103d7000e60f500003003e00309680000000a000d7
:103d80003096880091b18000f00f540005003a0091
:103d90006108b800dbf80700329580004395800089
:103da000040037006108b800d6f8070032ac800084
:103db00043ac8000d8f90700b7f807000005780089
:103dc0000a00e00005003a009ab180000af0a7005e
:103dd0000a05ea000a05ea004f55de000a00e9007c
:103de000e60f500003003e00309680000000a00067
:103df0003096880081b38000f00f540005003a002f
:103e00006108b800bff80700329580004395800034
:103e1000040037006108b800baf8070032ac80002f
:103e200043ac8000bcf907009bf8070080047800d1
:103e30000900e00005003a0089b3800009f0a700fe
:103e40008904ea008904ea00cf4cde000900e90099
:103e5000e60f500003003e00309680000000a000f6
:103e60003096880071b58000f00f540005003a00cc
:103e70006108b800a3f807003295800043958000e0
:103e8000040037006108b8009ef8070032ac8000db
:103e900043ac8000a0f907007ff807000000e000b5
:103ea00005003a0070b5800000f0a7000000ea00ad
:103eb0000000ea004f00de00f00f540003003a005b
:103ec000319680000100a100319688002195800084
:103ed0000140a10021958800612c2100910078000b
:103ee000e180600008003a00ccad8800bbaf8800dc
:103ef000aab1880099b3880080b588002096800018
:103f00000030a000209688004f0678004f05be00c4
:103f10004f04be0000000600f6874700889fbe00e1
:103f20008a9fbe008c9fbe008e1f78003eae800030
:103f30006176b80023b08000611db8000a04460015
:103f40008b844e0012b280006112b800080042005b
:103f500089804a00f0b79f0081bf9f0001b48000b4
:103f6000610bb80096b79f00a7b79f007fb497007a
:103f70008fbc97000804430089844b00f8b79f006a
:103f800089bf9f00f0b5800008044000e0844c0029
:103f900017ee2f00870f5400e08f5c0045003600bd
:103fa0000800be00b4b79f00c5b79f0055f80700d2
:103fb0000001be0000202e00e177240078fa0700ff
:103fc0000004be000c00be004ef807000001be0059
:103fd0000800be0050f907002ff807000003be00dc
:103fe00080b79f000a00be00d6b79f00e7b79f00ca
:103ff00044f807000001be000800be0046f90700b3
:1040000025f807000005be00f0af9f003fb2970003
:10401000cfb297000400be003af807000001be00ce
:104020000800be003cf907001bf807000006be00b0
:104030001fb09700afb0970032f807000001be0034
:104040000800be0034f9070013f807000fb297000c
:104050006121b8007fac970002014400e081490073
:1040600002014600e081490002014000e081490070
:104070005fb3970019ee2f00890f5100e08f5900b0
:1040800017003e00a6ad88009aaf88008cb188006a
:10409000329680000258a300020032000298a3006a
:1040a0000100320070b38800c06a21000008eb00f4
:1040b0000b003700aead880093af880082b1880056
:1040c000309680000058a300020032000098a30040
:1040d0000100320071b38800f0b5800060b588003f
:1040e000a0ad80000000e00009003a0090af800021
:1040f0000000e00006003a0080b180000000e0000f
:1041000003003a0070b380000000e00003003200ba
:104110002096800000a0a100209688004f0778001c
:104120004f06be004f05be004f04be006f01b10038
:1041300000000600889fbe008a9fbe008c9fbe00c4
:10414000402c2100100078006800600005003a0053
:10415000e05d210055800a00100000000000e00032
:10416000a1013200c8ad80000800e0003800320034
:1041700019aa80006000b8000900e00008003200c1
:104180006140b800dff707000005be006148b800d5
:10419000dcf707000001be000a00be0000fa0700bd
:1041a00090ab8800a1ab8800f0ae80000000a100b9
:1041b000f0ae880090ab8000a1ab80000630ab0071
:1041c000020032006140b8000e00370032ae8000bd
:1041d0000200e00007003a00309680000020a000b6
:1041e0003096880018c0b300800020000100200035
:1041f0001400370002002000f33f2400c6f8070037
:10420000a5f7070022ee2f00820f5000e08f580024
:1042100007003e00e00f5000e08f580008003a0011
:104220001900200039ae88000044eb00120037006e
:104230000044eb0020ee2f000100200001003700b9
:104240000044eb0030ae880019c0b3000a0037000c
:104250000000200001f8230090ab8800a1ab88008b
:1042600038ae8800f0ae80000000a100f0ae8800fb
:104270000044eb0088447800baaf80000a00e000f8
:10428000330032008944e8002baa80006000b800a7
:104290000b00e000080032006150b80099f70700f9
:1042a0000006be006158b80096f707000001be0086
:1042b0000c00be00baf90700b0ab8800c1ab8800a3
:1042c000e0b080000000a100e0b08800b0ab80004a
:1042d000c1ab80000630ab00020032006150b80074
:1042e0000e00370022b080000200e00007003a0014
:1042f000309680000030a000309688000844e80026
:1043000080002000010020000f0037000200200084
:10431000f33f240080f807005ff7070024ee2f002a
:10432000840f5000e08f580005003e00e00f500061
:10433000e08f580004003a0010002000020037000f
:1043400020ee2f000100200020b088000800370078
:104350000000200001f82300b0ab8800c1ab88004a
:104360002ab08800e0b080000000a100e0b0880022
:10437000aab180000a00e000330032008944e8005e
:104380003baa80006000b8000b00e000080032008b
:104390006150b8005bf707000006be006158b80026
:1043a00058f707000001be000c00be007cf90700b2
:1043b000d0ab8800e1ab8800d0b280000000a10043
:1043c000d0b28800d0ab8000e1ab80000630ab00fb
:1043d000020032006150b8000e00370012b28000b7
:1043e0000200e00007003a00309680000040a00084
:1043f000309688000844e80080002000010020007a
:104400000f00370002002000f33f240042f80700ad
:1044100021f7070025ee2f00850f5000e08f580090
:1044200005003e00e00f5000e08f580004003a0005
:10443000100020000200370020ee2f0001002000b5
:1044400010b28800080037000000200001f82300a7
:10445000d0ab8800e1ab88001ab28800d0b28000ef
:104460000000a100d0b288009ab380000a00e000ea
:10447000470032008944e8004baa80006000b80081
:104480000b00e000080032006150b8001df7070083
:104490000006be006158b8001af707000001be0010
:1044a0000c00be003ef90700f0ab880001ac8800ac
:1044b000c0b480000000a100c0b48800e1cf540067
:1044c000090032000200200063412400f0ab8000ac
:1044d00001ac800010f80700eff6070052c622007a
:1044e000130020000800370002002400534324007a
:1044f000f0ab800001ac800007f80700e6f607008b
:10450000e2c1260013002000820f5000838f580064
:10451000010036000200be000630ab00020032008f
:104520006150b8000f00370002b480000200e000c4
:1045300007003a00309680000050a00030968800b6
:104540000844e8008000200001002000050037003a
:10455000e00f5000e08f580002003a0010002000e9
:104560000100200020b4880031b4880020b480000d
:1045700031b4800012ee2f00820f5000e08f5800ff
:104580000100360020ee2f0000b48800080037003c
:104590000000200001f82300f0ab880001ac880087
:1045a0000ab48800c0b480000000a100c0b4880034
:1045b000006b21000008eb000000200001f8230040
:1045c00010ac880021ac8800e06b21000008eb00f3
:1045d000b0b680000000a100b0b688008984fb005e
:1045e000c9a888003096800080007800c107b2001a
:1045f000290032000018a30027003a000058a30049
:10460000020032000090a1003096880030968000b1
:104610000080a1000010a00030968800202e21000c
:1046200008487800f09380000040a100f0938800d3
:104630001000200050ad880040af880030b18800e5
:1046400020b3880010b5880030fe2f00f1ae800046
:1046500000806000f0ae880030fe2f00e1b08000e6
:1046600000806000e0b0880030fe2f00d1b28000f2
:1046700000806000d0b2880030fe2f00c1b48000fe
:1046800000806000c0b4880030fe2f00b1b680000a
:1046900000806000b0b68800e05d21001000780066
:1046a0006100600038003a00c0612100100078000d
:1046b0006100600034003a00a0652100100078001d
:1046c0006100600030003a0080692100100078002d
:1046d000610060002c003a00606d2100100078003d
:1046e0006100600028003a00a02c21001000780032
:1046f0006100600004003200509680000000a100bc
:104700000010a00050968800209680000030a10084
:1047100020968800f09380000050a000f09388005d
:104720001000200050ad880040af880030b18800f4
:1047300020b3880010b5880030fe2f00f1ae800055
:1047400000806000f0ae880030fe2f00e1b08000f5
:1047500000806000e0b0880030fe2f00d1b2800001
:1047600000806000d0b2880030fe2f00c1b480000d
:1047700000806000c0b4880030fe2f00b1b6800019
:1047800000806000b0b6880022b080008001eb009d
:1047900030ae800002014000e08149004068210005
:1047a00030024100a082490010b2800004014000a4
:1047b000e0814a00f1b58000c0582100028240002b
:1047c000e08249000488be00e05d210055800a00b7
:1047d000100000000000e00003003200f0ae800096
:1047e0000050a100f0ae880062ac800073ac800085
:1047f000c1aa800025ee2f00850f5100e08f5900df
:10480000100036000170a100c1aa8800802c210090
:1048100010007800ec0060002096800006003a004e
:10482000612c210091007800e280600002003a00d3
:104830000090a000010037000090a10020968800a1
:1048400018003700209680000090a1002096880074
:10485000010078000070a100c0aa8800d1ce2f000e
:10486000810f5100e08f59000e003e00e12721002a
:1048700091007800e48060000a003a00412a21009b
:1048800091007800e480600006003a00612c21006d
:1048900091007800e280600002003a000070a00001
:1048a000c0aa8800f1ad800092ae8000050009002a
:1048b0008280d8008000eb0012f607000004be00e2
:1048c00010aa80008000eb000ef607000001be0079
:1048d0000800be0010f707000004be00e1af800032
:1048e00082b08000050009008280d8008000eb00c3
:1048f00004f607000005be0020aa80008000eb003f
:1049000000f607000001be000a00be0002f7070023
:104910000001be000800be001af607000004be0039
:10492000d1b1800072b28000050009008280d800f9
:104930008000eb00f3f507000005be0030aa800000
:104940008000eb00eff507000001be000a00be008a
:10495000f1f607000001be000800be0009f60700de
:104960000004be00c1b3800062b4800005000900ed
:104970008280d8008000eb00e2f507000005be0051
:1049800040aa80008000eb00def507000001be00b9
:104990000a00be00e0f607000001be000800be00ed
:1049a000f8f507000004be00b1b5800052b68000e3
:1049b000050009008280d8008000eb00d1f50700d7
:1049c0000005be0050aa80008000eb00cdf5070076
:1049d0000001be000a00be00cff607000001be00c5
:1049e0000800be00e7f507000004be000094880040
:1049f00011948800c0a88000e10f50008a003600a2
:104a000082e32a0063c124000800be00a0f507006d
:104a10000000e000b6003500602c21001000780096
:104a200062006000b2003a00c0aa80000070a100dd
:104a3000c0aa8800402a21001000780064006000ad
:104a4000ad003a00fa9380006400650007003a0068
:104a50000a20a000fa93880062b78000c293880001
:104a600054ac8000e49388008600370082e32a007b
:104a700063c124000800be00b9f5070002c026008b
:104a80008386240082f507000000e0000600340061
:104a90000a48a30004003a00a02721001008e800fb
:104aa0000a40a000fa938800e027210055800a0000
:104ab000100000000000e00004003200f0938000cd
:104ac0000050a1000040a100f0938800402c21007c
:104ad000100078006805600087003a0030ae800062
:104ae0008000eb0087f507000004be0010aa8000dc
:104af0008000eb0083f507000001be000800be0047
:104b000085f607000004be0020b080008000eb00a6
:104b10007cf507000006be0020aa80008000eb00a4
:104b200078f507000001be000c00be007af6070011
:104b30000001be000800be0092f507000004be00a0
:104b400010b280008000eb006ef507000006be008a
:104b500030aa80008000eb006af507000001be006b
:104b60000c00be006cf607000001be000800be008d
:104b700084f507000004be0000b480008000eb0054
:104b800060f507000006be0040aa80008000eb0030
:104b90005cf507000001be000c00be005ef60700d9
:104ba0000001be000800be0076f507000004be004c
:104bb000f0b580008000eb0052f507000006be0053
:104bc00050aa80008000eb004ef507000001be00f7
:104bd0000c00be0050f607000001be000800be0039
:104be00068f507000004be00209488003194880016
:104bf0000001be00009480001194800024f507009d
:104c00000000e0003c00340082e32a0063c124007d
:104c10000800be001cf507000000e00036003d0063
:104c2000fa9388003400370002a7240033c324001d
:104c30000800be0016f507000000e0002c0035005b
:104c4000b1b3800080072000808f5000280036001c
:104c5000402a2100100078006400600026003a001d
:104c6000fa9380006400650008003a000a20a00062
:104c7000fa93880065b78000c593880051ac800026
:104c8000e1938800d09388001b00370002a724001e
:104c900033c324000800be0031f5070002c026001f
:104ca00083862400faf407000000e00012003400bc
:104cb0000a48a30004003a00a02721001008e800d9
:104cc0000a40a000fa938800e027210055800a00de
:104cd000100000000000e00007003200f0938000a8
:104ce0000050a1000040a100f093880002003700ae
:104cf000e02721000008eb0020958000800078006c
:104d00004102b200e48f500013003a00e900600055
:104d1000e98f500009003a000030a100209588007a
:104d2000909480004f11070034ac800045ac8000a7
:104d300034958800459588000300370072006000b4
:104d4000f20f500013003a00209680000020a000cf
:104d5000209688000f0037000058a3000d00320095
:104d6000a12c210091007800f08060000200320048
:104d70000050a1002095880011958000c0d421002a
:104d8000808f500003003600209580000050a10065
:104d900020958800c026210055820a0010000000de
:104da000412c2100000021000200e0000700320039
:104db000110060000f003a002096800000c0a000a3
:104dc0002096880040062000060037001100600091
:104dd000080032002096800000c0a10020968800c4
:104de00060b780001f110700209680000020a000ff
:104df00020968800308080006c006000ec0f50002e
:104e000002003a000650a9000670a90042fc070003
:104e10004f06be004f05be004f04be000000060056
:104e200060938000800078008106b200e88f500017
:104e30006a003200800078004106b200670032004c
:104e40000020a10060938800e05021000048eb00a2
:104e5000660040000048eb006a005000a1cfb3009c
:104e600090cf10000100360001487800b0502100ba
:104e7000a1cfb30090cf10000100360001487800a8
:104e8000c0502100a1cfb30090cf10000100360028
:104e900001487800d0502100a1cfb30090cf10007e
:104ea0000100360001487800f0502100a1cfb30086
:104eb00090cf10000100360001487800a05021007a
:104ec00010417800e6004000914f51000a00320086
:104ed000f0ae80000000a000f0ae8800a0b8800016
:104ee0000000a100a0b888008248780020968000c9
:104ef0000010a00020968800b050210010417800da
:104f0000e6004000914f51000a003200e0b08000fe
:104f10000000a000e0b08800a0b880000000a10060
:104f2000a0b8880082487800209680000010a00079
:104f300020968800c050210010417800e600400013
:104f4000914f51000a003200d0b280000000a00052
:104f5000d0b28800a0b880000000a100a0b88800ee
:104f600082487800209680000010a00020968800db
:104f7000d050210010417800e6004000914f5100d0
:104f800007003200c0b480000000a000c0b4880058
:104f900082487800209680000010a00020968800ab
:104fa000803e2000f0958800a0b880003000b3005b
:104fb000a0b88800f05021001080fb005151210062
:104fc00080487800909688004006200070968800ff
:104fd000e06d21000008eb0091fa0700bbfa070022
:104fe00020fb070053fc37006101b800610151004c
:104ff000e0815900e40f5100e08f59000f003e009e
:1050000002060100040037000500370006003700e3
:105010000700370008003700711a880000000600fa
:10502000211c880000000600d11d88000000060039
:10503000811f880000000600312188000000060062
:10504000889fbe00b5efa900b40e0700802fab000b
:1050500001003200802fa900602b21000008eb0026
:105060006e0040000008eb000080e8000008eb0044
:105070006c0050000008eb000080e8000008eb0026
:105080006c0040000008eb00905021000048eb004d
:1050900011c0b3000000e900014878007000400032
:1050a0000008eb00700040000048eb006000b80012
:1050b00020a9880031a98800205421000008eb00b5
:1050c000740050000048eb006011b80052a988003d
:1050d00063a98800760040000008eb0070005000d3
:1050e0000048eb0082a9880093a988007200400064
:1050f0000008eb006c0050000048eb00b2a98800eb
:10510000c3a988006e0040000008eb006800500052
:105110000048eb00e2a98800f3a988006a0040007b
:105120000008eb00e81f200068aa880028ad88006e
:10513000640040000008eb000080e8000048eb003d
:105140000000e8000048eb00670040000008eb00aa
:105150000000200001f8230090ab8800a1ab88007c
:10516000b0ab8800c1ab8800d0ab8800e1ab880051
:10517000f0ab880001ac880010ac880021ac88003e
:105180006000b800f0aa880001ab880010ab88006e
:1051900021ab880030ab880041ab880050ab880061
:1051a00061ab880070ab880081ab8800d0aa880012
:1051b000e1aa880058ac8800720c200092ac8800ec
:1051c00072062000a2ac880092032000b2ac8800d6
:1051d00077015100c2ac8800e22721000009eb00f2
:1051e000640151000009eb000094880011948800cc
:1051f000600121000008eb000080eb002f0f07008a
:1052000000712200e080880080382100d080880072
:10521000401f2000f080880000818800893e200027
:1052200019818800a00f200020818800802520009f
:1052300030818800a0828800007d20009082880054
:10524000c02621000008eb00c021b1000048eb009f
:105250000000e8000048eb00670040000008eb0099
:105260008021b0000008eb001200200052ad880041
:10527000c05b21000008eb000080e8000008eb00a4
:10528000640040000008eb006e0050000008eb00d6
:10529000720040000008eb00780040000008eb00be
:1052a000640040000008eb000080e8000008eb000c
:1052b0000101200091ae88000002b1000008eb005f
:1052c00090c0b300635d2100804978008381e800cd
:1052d000804978008381e8008049780042af8800e7
:1052e000a35f21008009eb008381e8008009eb00c7
:1052f000e48141008009eb00ee8151008009eb0060
:10530000f28141008009eb00f88141008009eb0047
:10531000e48141008009eb008381e8008009eb0013
:1053200081b088000302b1008009eb00f2814100e6
:10533000804978008381e800804978008381e80013
:105340008049780032b18800836321008009eb0036
:105350008381e8008009eb00e48141008009eb00d3
:10536000ee8151008009eb00f28141008009eb00e1
:10537000f88141008009eb00e48141008009eb00e5
:105380008381e8008009eb0071b288000302b1005c
:105390008009eb00f2814100804978008381e800b8
:1053a000804978008381e8008049780022b3880032
:1053b000636721008009eb008381e8008009eb002e
:1053c000e48141008009eb00ee8151008009eb008f
:1053d000f28141008009eb0058b48800f881410057
:1053e0008009eb00e48141008009eb008381e80043
:1053f0008009eb0061b488000302b1008009eb0072
:10540000f2814100804978008381e800804978007a
:105410008381e8008049780012b58800426b210042
:105420000009eb000281e8000009eb006401410083
:105430000009eb006e0151000009eb007201410010
:105440000009eb00780141000009eb006401410014
:105450000009eb000281e8000009eb0051b688006a
